{
  "contractName": "Chainlist",
  "abi": [
    {
      "constant": true,
      "inputs": [
        {
          "name": "",
          "type": "uint256"
        }
      ],
      "name": "articles",
      "outputs": [
        {
          "name": "id",
          "type": "uint256"
        },
        {
          "name": "seller",
          "type": "address"
        },
        {
          "name": "buyer",
          "type": "address"
        },
        {
          "name": "name",
          "type": "string"
        },
        {
          "name": "desc",
          "type": "string"
        },
        {
          "name": "price",
          "type": "uint256"
        }
      ],
      "payable": false,
      "stateMutability": "view",
      "type": "function"
    },
    {
      "inputs": [],
      "payable": false,
      "stateMutability": "nonpayable",
      "type": "constructor"
    },
    {
      "anonymous": false,
      "inputs": [
        {
          "indexed": true,
          "name": "id",
          "type": "uint256"
        },
        {
          "indexed": true,
          "name": "_seller",
          "type": "address"
        },
        {
          "indexed": false,
          "name": "_name",
          "type": "string"
        },
        {
          "indexed": false,
          "name": "_price",
          "type": "uint256"
        }
      ],
      "name": "LogSellerArticle",
      "type": "event"
    },
    {
      "anonymous": false,
      "inputs": [
        {
          "indexed": true,
          "name": "_id",
          "type": "uint256"
        },
        {
          "indexed": true,
          "name": "_seller",
          "type": "address"
        },
        {
          "indexed": true,
          "name": "_buyer",
          "type": "address"
        },
        {
          "indexed": false,
          "name": "_name",
          "type": "string"
        },
        {
          "indexed": false,
          "name": "_price",
          "type": "uint256"
        }
      ],
      "name": "LogBuyArticle",
      "type": "event"
    },
    {
      "constant": false,
      "inputs": [],
      "name": "kill",
      "outputs": [],
      "payable": false,
      "stateMutability": "nonpayable",
      "type": "function"
    },
    {
      "constant": false,
      "inputs": [
        {
          "name": "_name",
          "type": "string"
        },
        {
          "name": "_desc",
          "type": "string"
        },
        {
          "name": "_price",
          "type": "uint256"
        }
      ],
      "name": "sellArticle",
      "outputs": [],
      "payable": false,
      "stateMutability": "nonpayable",
      "type": "function"
    },
    {
      "constant": true,
      "inputs": [],
      "name": "getNumberOfArticle",
      "outputs": [
        {
          "name": "",
          "type": "uint256"
        }
      ],
      "payable": false,
      "stateMutability": "view",
      "type": "function"
    },
    {
      "constant": true,
      "inputs": [],
      "name": "getgetArticlesForSale",
      "outputs": [
        {
          "name": "",
          "type": "uint256[]"
        }
      ],
      "payable": false,
      "stateMutability": "view",
      "type": "function"
    },
    {
      "constant": false,
      "inputs": [
        {
          "name": "_id",
          "type": "uint256"
        }
      ],
      "name": "buyArticle",
      "outputs": [],
      "payable": true,
      "stateMutability": "payable",
      "type": "function"
    }
  ],
  "bytecode": "0x6060604052341561000f57600080fd5b33600260006101000a81548173ffffffffffffffffffffffffffffffffffffffff021916908373ffffffffffffffffffffffffffffffffffffffff160217905550610c128061005f6000396000f300606060405260043610610078576000357c0100000000000000000000000000000000000000000000000000000000900463ffffffff1680631cc4baa81461007d57806341c0e1b514610095578063518f0d24146100aa578063a1b681cd146100d3578063d26095151461013d578063edcfafe6146101e6575b600080fd5b610093600480803590602001909190505061039c565b005b34156100a057600080fd5b6100a8610685565b005b34156100b557600080fd5b6100bd61071c565b6040518082815260200191505060405180910390f35b34156100de57600080fd5b6100e6610726565b6040518080602001828103825283818151815260200191508051906020019060200280838360005b8381101561012957808201518184015260208101905061010e565b505050509050019250505060405180910390f35b341561014857600080fd5b6101e4600480803590602001908201803590602001908080601f0160208091040260200160405190810160405280939291908181526020018383808284378201915050505050509190803590602001908201803590602001908080601f0160208091040260200160405190810160405280939291908181526020018383808284378201915050505050509190803590602001909190505061088e565b005b34156101f157600080fd5b6102076004808035906020019091905050610ab3565b604051808781526020018673ffffffffffffffffffffffffffffffffffffffff1673ffffffffffffffffffffffffffffffffffffffff1681526020018573ffffffffffffffffffffffffffffffffffffffff1673ffffffffffffffffffffffffffffffffffffffff16815260200180602001806020018481526020018381038352868181546001816001161561010002031660029004815260200191508054600181600116156101000203166002900480156103045780601f106102d957610100808354040283529160200191610304565b820191906000526020600020905b8154815290600101906020018083116102e757829003601f168201915b50508381038252858181546001816001161561010002031660029004815260200191508054600181600116156101000203166002900480156103875780601f1061035c57610100808354040283529160200191610387565b820191906000526020600020905b81548152906001019060200180831161036a57829003601f168201915b50509850505050505050505060405180910390f35b6000806001541115156103ae57600080fd5b6000821180156103c057506001548211155b15156103cb57600080fd5b600080838152602001908152602001600020905060008160020160009054906101000a900473ffffffffffffffffffffffffffffffffffffffff1673ffffffffffffffffffffffffffffffffffffffff1614151561042857600080fd5b8060010160009054906101000a900473ffffffffffffffffffffffffffffffffffffffff1673ffffffffffffffffffffffffffffffffffffffff163373ffffffffffffffffffffffffffffffffffffffff161415151561048757600080fd5b80600501543414151561049957600080fd5b338160020160006101000a81548173ffffffffffffffffffffffffffffffffffffffff021916908373ffffffffffffffffffffffffffffffffffffffff1602179055508060010160009054906101000a900473ffffffffffffffffffffffffffffffffffffffff1673ffffffffffffffffffffffffffffffffffffffff166108fc349081150290604051600060405180830381858888f19350505050151561054057600080fd5b8060020160009054906101000a900473ffffffffffffffffffffffffffffffffffffffff1673ffffffffffffffffffffffffffffffffffffffff168160010160009054906101000a900473ffffffffffffffffffffffffffffffffffffffff1673ffffffffffffffffffffffffffffffffffffffff166001547f5d28bc06e6f0c45405abfe77bd77236c767f9bd9d044ae2d954a415a2b4823e084600301856005015460405180806020018381526020018281038252848181546001816001161561010002031660029004815260200191508054600181600116156101000203166002900480156106725780601f1061064757610100808354040283529160200191610672565b820191906000526020600020905b81548152906001019060200180831161065557829003601f168201915b5050935050505060405180910390a45050565b600260009054906101000a900473ffffffffffffffffffffffffffffffffffffffff1673ffffffffffffffffffffffffffffffffffffffff163373ffffffffffffffffffffffffffffffffffffffff161415156106e157600080fd5b600260009054906101000a900473ffffffffffffffffffffffffffffffffffffffff1673ffffffffffffffffffffffffffffffffffffffff16ff5b6000600154905090565b61072e610b2d565b610736610b2d565b600080610741610b2d565b60006001546040518059106107535750595b9080825280602002602001820160405250945060009350600192505b6001548311151561081457600080600085815260200190815260200160002060020160009054906101000a900473ffffffffffffffffffffffffffffffffffffffff1673ffffffffffffffffffffffffffffffffffffffff161415610807576000808481526020019081526020016000206000015485858151811015156107f257fe5b90602001906020020181815250506001840193505b828060010193505061076f565b836040518059106108225750595b90808252806020026020018201604052509150600090505b8381101561088357848181518110151561085057fe5b90602001906020020151828281518110151561086857fe5b9060200190602002018181525050808060010191505061083a565b819550505050505090565b60016000815480929190600101919050555060c06040519081016040528060015481526020013373ffffffffffffffffffffffffffffffffffffffff168152602001600073ffffffffffffffffffffffffffffffffffffffff1681526020018481526020018381526020018281525060008060015481526020019081526020016000206000820151816000015560208201518160010160006101000a81548173ffffffffffffffffffffffffffffffffffffffff021916908373ffffffffffffffffffffffffffffffffffffffff16021790555060408201518160020160006101000a81548173ffffffffffffffffffffffffffffffffffffffff021916908373ffffffffffffffffffffffffffffffffffffffff16021790555060608201518160030190805190602001906109c5929190610b41565b5060808201518160040190805190602001906109e2929190610b41565b5060a082015181600501559050503373ffffffffffffffffffffffffffffffffffffffff166001547f0a4ca6cf15290699e96294813d994e1ce7cc10d692731493adcc894c2f9b8ae385846040518080602001838152602001828103825284818151815260200191508051906020019080838360005b83811015610a73578082015181840152602081019050610a58565b50505050905090810190601f168015610aa05780820380516001836020036101000a031916815260200191505b50935050505060405180910390a3505050565b60006020528060005260406000206000915090508060000154908060010160009054906101000a900473ffffffffffffffffffffffffffffffffffffffff16908060020160009054906101000a900473ffffffffffffffffffffffffffffffffffffffff1690806003019080600401908060050154905086565b602060405190810160405280600081525090565b828054600181600116156101000203166002900490600052602060002090601f016020900481019282601f10610b8257805160ff1916838001178555610bb0565b82800160010185558215610bb0579182015b82811115610baf578251825591602001919060010190610b94565b5b509050610bbd9190610bc1565b5090565b610be391905b80821115610bdf576000816000905550600101610bc7565b5090565b905600a165627a7a72305820c4e9b865a034a36b1018c7e2e41004b53ad59e2385b0585f92d18e52bd6556670029",
  "source": "pragma solidity ^0.4.18;\n\ncontract Chainlist {\n\n    //Custom types\n    struct Article {\n        uint256 id;\n        address seller;\n        address buyer;\n        string name;\n        string desc;\n        uint256 price;\n    }\n    //State variables\n    mapping(uint => Article) public articles;\n    uint articleCounter;\n    address owner;\n\n\n\n\n    //Constructor\n    function Chainlist() public {\n        ///sellArticle(\"Default Article\", \"This is created from the constructor\", 1000000000000000000);\n        owner = msg.sender;\n    }\n\n    // modifiers\n    modifier onlyOwner(){\n        require(msg.sender == owner);\n        _;\n    }\n\n\n    //Deactivate CONTRACT\n    function kill() public onlyOwner {\n\n        selfdestruct(owner);\n    }\n\n\n\n    /*Events*/\n    event LogSellerArticle(uint indexed id, address indexed _seller, string _name, uint256 _price);\n    event LogBuyArticle(uint indexed _id, address indexed _seller, address indexed _buyer, string _name, uint256 _price);\n\n\n    function sellArticle(string _name, string _desc, uint256 _price) public {\n        articleCounter++;\n        articles[articleCounter] = Article(\n            articleCounter,\n            msg.sender,\n            0x0,\n            _name,\n            _desc,\n            _price\n        );\n        LogSellerArticle(articleCounter, msg.sender, _name, _price);\n\n    }\n\n\n    function getNumberOfArticle() view public returns (uint){\n        return articleCounter;\n    }\n\n\n    //get and return all article which are for sale\n    function getgetArticlesForSale() public view returns (uint []){\n        uint[] memory articleIds = new uint[](articleCounter);\n        uint numberOfArticleForSale = 0;\n        for (uint i = 1; i <= articleCounter; i++) {\n            if (articles[i].buyer == 0x0) {\n                articleIds[numberOfArticleForSale] = articles[i].id;\n                numberOfArticleForSale += 1;\n            }\n        }\n        uint[] memory forSale = new uint[](numberOfArticleForSale);\n        for (uint j = 0; j < numberOfArticleForSale; j++) {\n            forSale[j] = articleIds[j];\n        }\n        return forSale;\n    }\n\n\n    /*function getArticle() public view returns (address _seller, address _buyer, string _name, string _desc, uint256 _price){\n        return (seller, buyer, name, desc, price);\n    }*/\n\n    function buyArticle(uint _id) payable public {\n\n        //check at least one article is for sale\n        require(articleCounter > 0);\n\n        //Check the article exist\n        require(_id > 0 && _id <= articleCounter);\n\n        //retrieve the article\n        Article storage _article = articles[_id];\n\n\n        require(_article.buyer == 0x0);\n\n        require(msg.sender != _article.seller);\n\n        require(msg.value == _article.price);\n\n        _article.buyer = msg.sender;\n\n        _article.seller.transfer(msg.value);\n\n        LogBuyArticle(articleCounter, _article.seller, _article.buyer, _article.name, _article.price);\n    }\n\n\n}\n",
  "sourcePath": "/home/shiv/workPlace/Ethereum/myApp/contracts/Chainlist.sol",
  "compiler": {
    "name": "solc",
    "version": "0.4.19+commit.c4cbbb05.Emscripten.clang"
  },
  "schemaVersion": "2.0.0",
  "updatedAt": "2018-03-16T11:50:45.276Z"
}